{
	"contracts/1_Storage.sol": {
		"AccessRestriction": {
			"abi": [
				{
					"constant": true,
					"inputs": [],
					"name": "lastOwnerChange",
					"outputs": [
						{
							"name": "",
							"type": "uint256"
						}
					],
					"payable": false,
					"stateMutability": "view",
					"type": "function"
				},
				{
					"constant": true,
					"inputs": [],
					"name": "owner",
					"outputs": [
						{
							"name": "",
							"type": "address"
						}
					],
					"payable": false,
					"stateMutability": "view",
					"type": "function"
				},
				{
					"constant": false,
					"inputs": [
						{
							"name": "_newOwner",
							"type": "address"
						}
					],
					"name": "changeOwner",
					"outputs": [],
					"payable": false,
					"stateMutability": "nonpayable",
					"type": "function"
				},
				{
					"constant": false,
					"inputs": [],
					"name": "buyContract",
					"outputs": [],
					"payable": true,
					"stateMutability": "payable",
					"type": "function"
				}
			],
			"devdoc": {
				"methods": {}
			},
			"evm": {
				"assembly": "    /* \"contracts/1_Storage.sol\":69:848  contract AccessRestriction {\r... */\n  mstore(0x40, 0x80)\n    /* \"contracts/1_Storage.sol\":128:138  msg.sender */\n  caller\n    /* \"contracts/1_Storage.sol\":105:138  address public owner = msg.sender */\n  0x0\n  dup1\n  0x100\n  exp\n  dup2\n  sload\n  dup2\n  0xffffffffffffffffffffffffffffffffffffffff\n  mul\n  not\n  and\n  swap1\n  dup4\n  0xffffffffffffffffffffffffffffffffffffffff\n  and\n  mul\n  or\n  swap1\n  sstore\n  pop\n    /* \"contracts/1_Storage.sol\":175:178  now */\n  timestamp\n    /* \"contracts/1_Storage.sol\":145:178  uint public lastOwnerChange = now */\n  0x1\n  sstore\n    /* \"contracts/1_Storage.sol\":69:848  contract AccessRestriction {\r... */\n  callvalue\n    /* \"--CODEGEN--\":8:17   */\n  dup1\n    /* \"--CODEGEN--\":5:7   */\n  iszero\n  tag_1\n  jumpi\n    /* \"--CODEGEN--\":30:31   */\n  0x0\n    /* \"--CODEGEN--\":27:28   */\n  dup1\n    /* \"--CODEGEN--\":20:32   */\n  revert\n    /* \"--CODEGEN--\":5:7   */\ntag_1:\n    /* \"contracts/1_Storage.sol\":69:848  contract AccessRestriction {\r... */\n  pop\n  dataSize(sub_0)\n  dup1\n  dataOffset(sub_0)\n  0x0\n  codecopy\n  0x0\n  return\nstop\n\nsub_0: assembly {\n        /* \"contracts/1_Storage.sol\":69:848  contract AccessRestriction {\r... */\n      mstore(0x40, 0x80)\n      jumpi(tag_1, lt(calldatasize, 0x4))\n      calldataload(0x0)\n      0x100000000000000000000000000000000000000000000000000000000\n      swap1\n      div\n      0xffffffff\n      and\n      dup1\n      0x5ff711ef\n      eq\n      tag_2\n      jumpi\n      dup1\n      0x8da5cb5b\n      eq\n      tag_3\n      jumpi\n      dup1\n      0xa6f9dae1\n      eq\n      tag_4\n      jumpi\n      dup1\n      0xde866db1\n      eq\n      tag_5\n      jumpi\n    tag_1:\n      0x0\n      dup1\n      revert\n        /* \"contracts/1_Storage.sol\":145:178  uint public lastOwnerChange = now */\n    tag_2:\n      callvalue\n        /* \"--CODEGEN--\":8:17   */\n      dup1\n        /* \"--CODEGEN--\":5:7   */\n      iszero\n      tag_6\n      jumpi\n        /* \"--CODEGEN--\":30:31   */\n      0x0\n        /* \"--CODEGEN--\":27:28   */\n      dup1\n        /* \"--CODEGEN--\":20:32   */\n      revert\n        /* \"--CODEGEN--\":5:7   */\n    tag_6:\n        /* \"contracts/1_Storage.sol\":145:178  uint public lastOwnerChange = now */\n      pop\n      tag_7\n      jump(tag_8)\n    tag_7:\n      mload(0x40)\n      dup1\n      dup3\n      dup2\n      mstore\n      0x20\n      add\n      swap2\n      pop\n      pop\n      mload(0x40)\n      dup1\n      swap2\n      sub\n      swap1\n      return\n        /* \"contracts/1_Storage.sol\":105:138  address public owner = msg.sender */\n    tag_3:\n      callvalue\n        /* \"--CODEGEN--\":8:17   */\n      dup1\n        /* \"--CODEGEN--\":5:7   */\n      iszero\n      tag_9\n      jumpi\n        /* \"--CODEGEN--\":30:31   */\n      0x0\n        /* \"--CODEGEN--\":27:28   */\n      dup1\n        /* \"--CODEGEN--\":20:32   */\n      revert\n        /* \"--CODEGEN--\":5:7   */\n    tag_9:\n        /* \"contracts/1_Storage.sol\":105:138  address public owner = msg.sender */\n      pop\n      tag_10\n      jump(tag_11)\n    tag_10:\n      mload(0x40)\n      dup1\n      dup3\n      0xffffffffffffffffffffffffffffffffffffffff\n      and\n      0xffffffffffffffffffffffffffffffffffffffff\n      and\n      dup2\n      mstore\n      0x20\n      add\n      swap2\n      pop\n      pop\n      mload(0x40)\n      dup1\n      swap2\n      sub\n      swap1\n      return\n        /* \"contracts/1_Storage.sol\":581:678  function changeOwner(address _newOwner) public onlyBy(owner) {\r... */\n    tag_4:\n      callvalue\n        /* \"--CODEGEN--\":8:17   */\n      dup1\n        /* \"--CODEGEN--\":5:7   */\n      iszero\n      tag_12\n      jumpi\n        /* \"--CODEGEN--\":30:31   */\n      0x0\n        /* \"--CODEGEN--\":27:28   */\n      dup1\n        /* \"--CODEGEN--\":20:32   */\n      revert\n        /* \"--CODEGEN--\":5:7   */\n    tag_12:\n        /* \"contracts/1_Storage.sol\":581:678  function changeOwner(address _newOwner) public onlyBy(owner) {\r... */\n      pop\n      tag_13\n      0x4\n      dup1\n      calldatasize\n      sub\n      dup2\n      add\n      swap1\n      dup1\n      dup1\n      calldataload\n      0xffffffffffffffffffffffffffffffffffffffff\n      and\n      swap1\n      0x20\n      add\n      swap1\n      swap3\n      swap2\n      swap1\n      pop\n      pop\n      pop\n      jump(tag_14)\n    tag_13:\n      stop\n        /* \"contracts/1_Storage.sol\":686:845  function buyContract() public payable onlyAfter(lastOwnerChange + 4 weeks) costs(1 ether) {\r... */\n    tag_5:\n      tag_15\n      jump(tag_16)\n    tag_15:\n      stop\n        /* \"contracts/1_Storage.sol\":145:178  uint public lastOwnerChange = now */\n    tag_8:\n      sload(0x1)\n      dup2\n      jump\t// out\n        /* \"contracts/1_Storage.sol\":105:138  address public owner = msg.sender */\n    tag_11:\n      0x0\n      dup1\n      swap1\n      sload\n      swap1\n      0x100\n      exp\n      swap1\n      div\n      0xffffffffffffffffffffffffffffffffffffffff\n      and\n      dup2\n      jump\t// out\n        /* \"contracts/1_Storage.sol\":581:678  function changeOwner(address _newOwner) public onlyBy(owner) {\r... */\n    tag_14:\n        /* \"contracts/1_Storage.sol\":635:640  owner */\n      0x0\n      dup1\n      swap1\n      sload\n      swap1\n      0x100\n      exp\n      swap1\n      div\n      0xffffffffffffffffffffffffffffffffffffffff\n      and\n        /* \"contracts/1_Storage.sol\":254:262  _account */\n      dup1\n        /* \"contracts/1_Storage.sol\":240:262  msg.sender == _account */\n      0xffffffffffffffffffffffffffffffffffffffff\n      and\n        /* \"contracts/1_Storage.sol\":240:250  msg.sender */\n      caller\n        /* \"contracts/1_Storage.sol\":240:262  msg.sender == _account */\n      0xffffffffffffffffffffffffffffffffffffffff\n      and\n      eq\n        /* \"contracts/1_Storage.sol\":232:263  require(msg.sender == _account) */\n      iszero\n      iszero\n      tag_18\n      jumpi\n      0x0\n      dup1\n      revert\n    tag_18:\n        /* \"contracts/1_Storage.sol\":661:670  _newOwner */\n      dup2\n        /* \"contracts/1_Storage.sol\":653:658  owner */\n      0x0\n      dup1\n        /* \"contracts/1_Storage.sol\":653:670  owner = _newOwner */\n      0x100\n      exp\n      dup2\n      sload\n      dup2\n      0xffffffffffffffffffffffffffffffffffffffff\n      mul\n      not\n      and\n      swap1\n      dup4\n      0xffffffffffffffffffffffffffffffffffffffff\n      and\n      mul\n      or\n      swap1\n      sstore\n      pop\n        /* \"contracts/1_Storage.sol\":581:678  function changeOwner(address _newOwner) public onlyBy(owner) {\r... */\n      pop\n      pop\n      jump\t// out\n        /* \"contracts/1_Storage.sol\":686:845  function buyContract() public payable onlyAfter(lastOwnerChange + 4 weeks) costs(1 ether) {\r... */\n    tag_16:\n        /* \"contracts/1_Storage.sol\":752:759  4 weeks */\n      0x24ea00\n        /* \"contracts/1_Storage.sol\":734:749  lastOwnerChange */\n      sload(0x1)\n        /* \"contracts/1_Storage.sol\":734:759  lastOwnerChange + 4 weeks */\n      add\n        /* \"contracts/1_Storage.sol\":348:353  _time */\n      dup1\n        /* \"contracts/1_Storage.sol\":341:344  now */\n      timestamp\n        /* \"contracts/1_Storage.sol\":341:353  now >= _time */\n      lt\n      iszero\n        /* \"contracts/1_Storage.sol\":333:354  require(now >= _time) */\n      iszero\n      iszero\n      tag_21\n      jumpi\n      0x0\n      dup1\n      revert\n    tag_21:\n        /* \"contracts/1_Storage.sol\":767:774  1 ether */\n      0xde0b6b3a7640000\n        /* \"contracts/1_Storage.sol\":443:450  _amount */\n      dup1\n        /* \"contracts/1_Storage.sol\":430:439  msg.value */\n      callvalue\n        /* \"contracts/1_Storage.sol\":430:450  msg.value >= _amount */\n      lt\n      iszero\n        /* \"contracts/1_Storage.sol\":422:451  require(msg.value >= _amount) */\n      iszero\n      iszero\n      tag_23\n      jumpi\n      0x0\n      dup1\n      revert\n    tag_23:\n        /* \"contracts/1_Storage.sol\":795:805  msg.sender */\n      caller\n        /* \"contracts/1_Storage.sol\":787:792  owner */\n      0x0\n      dup1\n        /* \"contracts/1_Storage.sol\":787:805  owner = msg.sender */\n      0x100\n      exp\n      dup2\n      sload\n      dup2\n      0xffffffffffffffffffffffffffffffffffffffff\n      mul\n      not\n      and\n      swap1\n      dup4\n      0xffffffffffffffffffffffffffffffffffffffff\n      and\n      mul\n      or\n      swap1\n      sstore\n      pop\n        /* \"contracts/1_Storage.sol\":834:837  now */\n      timestamp\n        /* \"contracts/1_Storage.sol\":816:831  lastOwnerChange */\n      0x1\n        /* \"contracts/1_Storage.sol\":816:837  lastOwnerChange = now */\n      dup2\n      swap1\n      sstore\n      pop\n        /* \"contracts/1_Storage.sol\":490:497  _amount */\n      dup1\n        /* \"contracts/1_Storage.sol\":478:487  msg.value */\n      callvalue\n        /* \"contracts/1_Storage.sol\":478:497  msg.value > _amount */\n      gt\n        /* \"contracts/1_Storage.sol\":474:566  if (msg.value > _amount) {\r... */\n      iszero\n      tag_25\n      jumpi\n        /* \"contracts/1_Storage.sol\":514:524  msg.sender */\n      caller\n        /* \"contracts/1_Storage.sol\":514:533  msg.sender.transfer */\n      0xffffffffffffffffffffffffffffffffffffffff\n      and\n        /* \"contracts/1_Storage.sol\":514:554  msg.sender.transfer(msg.value - _amount) */\n      0x8fc\n        /* \"contracts/1_Storage.sol\":546:553  _amount */\n      dup3\n        /* \"contracts/1_Storage.sol\":534:543  msg.value */\n      callvalue\n        /* \"contracts/1_Storage.sol\":534:553  msg.value - _amount */\n      sub\n        /* \"contracts/1_Storage.sol\":514:554  msg.sender.transfer(msg.value - _amount) */\n      swap1\n      dup2\n      iszero\n      mul\n      swap1\n      mload(0x40)\n      0x0\n      mload(0x40)\n      dup1\n      dup4\n      sub\n      dup2\n      dup6\n      dup9\n      dup9\n      call\n      swap4\n      pop\n      pop\n      pop\n      pop\n      iszero\n        /* \"--CODEGEN--\":8:17   */\n      dup1\n        /* \"--CODEGEN--\":5:7   */\n      iszero\n      tag_26\n      jumpi\n        /* \"--CODEGEN--\":45:61   */\n      returndatasize\n        /* \"--CODEGEN--\":42:43   */\n      0x0\n        /* \"--CODEGEN--\":39:40   */\n      dup1\n        /* \"--CODEGEN--\":24:62   */\n      returndatacopy\n        /* \"--CODEGEN--\":77:93   */\n      returndatasize\n        /* \"--CODEGEN--\":74:75   */\n      0x0\n        /* \"--CODEGEN--\":67:94   */\n      revert\n        /* \"--CODEGEN--\":5:7   */\n    tag_26:\n        /* \"contracts/1_Storage.sol\":514:554  msg.sender.transfer(msg.value - _amount) */\n      pop\n        /* \"contracts/1_Storage.sol\":474:566  if (msg.value > _amount) {\r... */\n    tag_25:\n        /* \"contracts/1_Storage.sol\":365:366  _ */\n      pop\n        /* \"contracts/1_Storage.sol\":686:845  function buyContract() public payable onlyAfter(lastOwnerChange + 4 weeks) costs(1 ether) {\r... */\n      pop\n      jump\t// out\n\n    auxdata: 0xa165627a7a7230582047d23096a8977665f36cb60835b39010af9eeccbf79ee0ad3405a3c241f72d880029\n}\n",
				"bytecode": {
					"linkReferences": {},
					"object": "6080604052336000806101000a81548173ffffffffffffffffffffffffffffffffffffffff021916908373ffffffffffffffffffffffffffffffffffffffff1602179055504260015534801561005457600080fd5b506102f9806100646000396000f300608060405260043610610062576000357c0100000000000000000000000000000000000000000000000000000000900463ffffffff1680635ff711ef146100675780638da5cb5b14610092578063a6f9dae1146100e9578063de866db11461012c575b600080fd5b34801561007357600080fd5b5061007c610136565b6040518082815260200191505060405180910390f35b34801561009e57600080fd5b506100a761013c565b604051808273ffffffffffffffffffffffffffffffffffffffff1673ffffffffffffffffffffffffffffffffffffffff16815260200191505060405180910390f35b3480156100f557600080fd5b5061012a600480360381019080803573ffffffffffffffffffffffffffffffffffffffff169060200190929190505050610161565b005b610134610201565b005b60015481565b6000809054906101000a900473ffffffffffffffffffffffffffffffffffffffff1681565b6000809054906101000a900473ffffffffffffffffffffffffffffffffffffffff168073ffffffffffffffffffffffffffffffffffffffff163373ffffffffffffffffffffffffffffffffffffffff161415156101bd57600080fd5b816000806101000a81548173ffffffffffffffffffffffffffffffffffffffff021916908373ffffffffffffffffffffffffffffffffffffffff1602179055505050565b6224ea006001540180421015151561021857600080fd5b670de0b6b3a764000080341015151561023057600080fd5b336000806101000a81548173ffffffffffffffffffffffffffffffffffffffff021916908373ffffffffffffffffffffffffffffffffffffffff16021790555042600181905550803411156102c9573373ffffffffffffffffffffffffffffffffffffffff166108fc8234039081150290604051600060405180830381858888f193505050501580156102c7573d6000803e3d6000fd5b505b50505600a165627a7a7230582047d23096a8977665f36cb60835b39010af9eeccbf79ee0ad3405a3c241f72d880029",
					"opcodes": "PUSH1 0x80 PUSH1 0x40 MSTORE CALLER PUSH1 0x0 DUP1 PUSH2 0x100 EXP DUP2 SLOAD DUP2 PUSH20 0xFFFFFFFFFFFFFFFFFFFFFFFFFFFFFFFFFFFFFFFF MUL NOT AND SWAP1 DUP4 PUSH20 0xFFFFFFFFFFFFFFFFFFFFFFFFFFFFFFFFFFFFFFFF AND MUL OR SWAP1 SSTORE POP TIMESTAMP PUSH1 0x1 SSTORE CALLVALUE DUP1 ISZERO PUSH2 0x54 JUMPI PUSH1 0x0 DUP1 REVERT JUMPDEST POP PUSH2 0x2F9 DUP1 PUSH2 0x64 PUSH1 0x0 CODECOPY PUSH1 0x0 RETURN STOP PUSH1 0x80 PUSH1 0x40 MSTORE PUSH1 0x4 CALLDATASIZE LT PUSH2 0x62 JUMPI PUSH1 0x0 CALLDATALOAD PUSH29 0x100000000000000000000000000000000000000000000000000000000 SWAP1 DIV PUSH4 0xFFFFFFFF AND DUP1 PUSH4 0x5FF711EF EQ PUSH2 0x67 JUMPI DUP1 PUSH4 0x8DA5CB5B EQ PUSH2 0x92 JUMPI DUP1 PUSH4 0xA6F9DAE1 EQ PUSH2 0xE9 JUMPI DUP1 PUSH4 0xDE866DB1 EQ PUSH2 0x12C JUMPI JUMPDEST PUSH1 0x0 DUP1 REVERT JUMPDEST CALLVALUE DUP1 ISZERO PUSH2 0x73 JUMPI PUSH1 0x0 DUP1 REVERT JUMPDEST POP PUSH2 0x7C PUSH2 0x136 JUMP JUMPDEST PUSH1 0x40 MLOAD DUP1 DUP3 DUP2 MSTORE PUSH1 0x20 ADD SWAP2 POP POP PUSH1 0x40 MLOAD DUP1 SWAP2 SUB SWAP1 RETURN JUMPDEST CALLVALUE DUP1 ISZERO PUSH2 0x9E JUMPI PUSH1 0x0 DUP1 REVERT JUMPDEST POP PUSH2 0xA7 PUSH2 0x13C JUMP JUMPDEST PUSH1 0x40 MLOAD DUP1 DUP3 PUSH20 0xFFFFFFFFFFFFFFFFFFFFFFFFFFFFFFFFFFFFFFFF AND PUSH20 0xFFFFFFFFFFFFFFFFFFFFFFFFFFFFFFFFFFFFFFFF AND DUP2 MSTORE PUSH1 0x20 ADD SWAP2 POP POP PUSH1 0x40 MLOAD DUP1 SWAP2 SUB SWAP1 RETURN JUMPDEST CALLVALUE DUP1 ISZERO PUSH2 0xF5 JUMPI PUSH1 0x0 DUP1 REVERT JUMPDEST POP PUSH2 0x12A PUSH1 0x4 DUP1 CALLDATASIZE SUB DUP2 ADD SWAP1 DUP1 DUP1 CALLDATALOAD PUSH20 0xFFFFFFFFFFFFFFFFFFFFFFFFFFFFFFFFFFFFFFFF AND SWAP1 PUSH1 0x20 ADD SWAP1 SWAP3 SWAP2 SWAP1 POP POP POP PUSH2 0x161 JUMP JUMPDEST STOP JUMPDEST PUSH2 0x134 PUSH2 0x201 JUMP JUMPDEST STOP JUMPDEST PUSH1 0x1 SLOAD DUP2 JUMP JUMPDEST PUSH1 0x0 DUP1 SWAP1 SLOAD SWAP1 PUSH2 0x100 EXP SWAP1 DIV PUSH20 0xFFFFFFFFFFFFFFFFFFFFFFFFFFFFFFFFFFFFFFFF AND DUP2 JUMP JUMPDEST PUSH1 0x0 DUP1 SWAP1 SLOAD SWAP1 PUSH2 0x100 EXP SWAP1 DIV PUSH20 0xFFFFFFFFFFFFFFFFFFFFFFFFFFFFFFFFFFFFFFFF AND DUP1 PUSH20 0xFFFFFFFFFFFFFFFFFFFFFFFFFFFFFFFFFFFFFFFF AND CALLER PUSH20 0xFFFFFFFFFFFFFFFFFFFFFFFFFFFFFFFFFFFFFFFF AND EQ ISZERO ISZERO PUSH2 0x1BD JUMPI PUSH1 0x0 DUP1 REVERT JUMPDEST DUP2 PUSH1 0x0 DUP1 PUSH2 0x100 EXP DUP2 SLOAD DUP2 PUSH20 0xFFFFFFFFFFFFFFFFFFFFFFFFFFFFFFFFFFFFFFFF MUL NOT AND SWAP1 DUP4 PUSH20 0xFFFFFFFFFFFFFFFFFFFFFFFFFFFFFFFFFFFFFFFF AND MUL OR SWAP1 SSTORE POP POP POP JUMP JUMPDEST PUSH3 0x24EA00 PUSH1 0x1 SLOAD ADD DUP1 TIMESTAMP LT ISZERO ISZERO ISZERO PUSH2 0x218 JUMPI PUSH1 0x0 DUP1 REVERT JUMPDEST PUSH8 0xDE0B6B3A7640000 DUP1 CALLVALUE LT ISZERO ISZERO ISZERO PUSH2 0x230 JUMPI PUSH1 0x0 DUP1 REVERT JUMPDEST CALLER PUSH1 0x0 DUP1 PUSH2 0x100 EXP DUP2 SLOAD DUP2 PUSH20 0xFFFFFFFFFFFFFFFFFFFFFFFFFFFFFFFFFFFFFFFF MUL NOT AND SWAP1 DUP4 PUSH20 0xFFFFFFFFFFFFFFFFFFFFFFFFFFFFFFFFFFFFFFFF AND MUL OR SWAP1 SSTORE POP TIMESTAMP PUSH1 0x1 DUP2 SWAP1 SSTORE POP DUP1 CALLVALUE GT ISZERO PUSH2 0x2C9 JUMPI CALLER PUSH20 0xFFFFFFFFFFFFFFFFFFFFFFFFFFFFFFFFFFFFFFFF AND PUSH2 0x8FC DUP3 CALLVALUE SUB SWAP1 DUP2 ISZERO MUL SWAP1 PUSH1 0x40 MLOAD PUSH1 0x0 PUSH1 0x40 MLOAD DUP1 DUP4 SUB DUP2 DUP6 DUP9 DUP9 CALL SWAP4 POP POP POP POP ISZERO DUP1 ISZERO PUSH2 0x2C7 JUMPI RETURNDATASIZE PUSH1 0x0 DUP1 RETURNDATACOPY RETURNDATASIZE PUSH1 0x0 REVERT JUMPDEST POP JUMPDEST POP POP JUMP STOP LOG1 PUSH6 0x627A7A723058 KECCAK256 0x47 0xd2 ADDRESS SWAP7 0xa8 SWAP8 PUSH23 0x65F36CB60835B39010AF9EECCBF79EE0AD3405A3C241F7 0x2d DUP9 STOP 0x29 "
				},
				"gasEstimates": {
					"creation": {
						"codeDepositCost": "152200",
						"executionCost": "40467",
						"totalCost": "192667"
					},
					"external": {
						"buyContract()": "infinite",
						"changeOwner(address)": "20789",
						"lastOwnerChange()": "394",
						"owner()": "464"
					}
				},
				"methodIdentifiers": {
					"buyContract()": "de866db1",
					"changeOwner(address)": "a6f9dae1",
					"lastOwnerChange()": "5ff711ef",
					"owner()": "8da5cb5b"
				}
			},
			"userdoc": {
				"methods": {}
			}
		}
	}
}